{
  "_format": "hh-sol-artifact-1",
  "contractName": "new_vote",
  "sourceName": "contracts/new_vote.sol",
  "abi": [
    {
      "inputs": [],
      "stateMutability": "nonpayable",
      "type": "constructor"
    },
    {
      "inputs": [
        {
          "internalType": "string",
          "name": "candidateId",
          "type": "string"
        }
      ],
      "name": "getCountOfVotes",
      "outputs": [
        {
          "internalType": "uint256",
          "name": "",
          "type": "uint256"
        }
      ],
      "stateMutability": "view",
      "type": "function"
    },
    {
      "inputs": [],
      "name": "getVotes",
      "outputs": [
        {
          "components": [
            {
              "internalType": "string",
              "name": "voterName",
              "type": "string"
            },
            {
              "internalType": "string",
              "name": "candidateId",
              "type": "string"
            },
            {
              "internalType": "uint256",
              "name": "timestamp",
              "type": "uint256"
            },
            {
              "internalType": "address",
              "name": "voterWalletAddress",
              "type": "address"
            }
          ],
          "internalType": "struct new_vote.Vote[]",
          "name": "",
          "type": "tuple[]"
        }
      ],
      "stateMutability": "view",
      "type": "function"
    },
    {
      "inputs": [
        {
          "internalType": "string",
          "name": "voterName",
          "type": "string"
        },
        {
          "internalType": "string",
          "name": "candidateId",
          "type": "string"
        }
      ],
      "name": "giveVote",
      "outputs": [],
      "stateMutability": "payable",
      "type": "function"
    }
  ],
  "bytecode": "0x608060405234801561001057600080fd5b5033600160006101000a81548173ffffffffffffffffffffffffffffffffffffffff021916908373ffffffffffffffffffffffffffffffffffffffff160217905550610c9f806100616000396000f3fe6080604052600436106100345760003560e01c80630dc96015146100395780632bc83fb11461006457806378a1cd6d14610080575b600080fd5b34801561004557600080fd5b5061004e6100bd565b60405161005b919061076a565b60405180910390f35b61007e600480360381019061007991906108d5565b6102a0565b005b34801561008c57600080fd5b506100a760048036038101906100a2919061094d565b6103ed565b6040516100b491906109a5565b60405180910390f35b60606000805480602002602001604051908101604052809291908181526020016000905b828210156102975783829060005260206000209060040201604051806080016040529081600082018054610114906109ef565b80601f0160208091040260200160405190810160405280929190818152602001828054610140906109ef565b801561018d5780601f106101625761010080835404028352916020019161018d565b820191906000526020600020905b81548152906001019060200180831161017057829003601f168201915b505050505081526020016001820180546101a6906109ef565b80601f01602080910402602001604051908101604052809291908181526020018280546101d2906109ef565b801561021f5780601f106101f45761010080835404028352916020019161021f565b820191906000526020600020905b81548152906001019060200180831161020257829003601f168201915b50505050508152602001600282015481526020016003820160009054906101000a900473ffffffffffffffffffffffffffffffffffffffff1673ffffffffffffffffffffffffffffffffffffffff1673ffffffffffffffffffffffffffffffffffffffff1681525050815260200190600101906100e1565b50505050905090565b60003373ffffffffffffffffffffffffffffffffffffffff1631116102fa576040517f08c379a00000000000000000000000000000000000000000000000000000000081526004016102f190610aa4565b60405180910390fd5b600060405180608001604052808481526020018381526020014281526020013373ffffffffffffffffffffffffffffffffffffffff16815250908060018154018082558091505060019003906000526020600020906004020160009091909190915060008201518160000190805190602001906103789291906104a8565b5060208201518160010190805190602001906103959291906104a8565b506040820151816002015560608201518160030160006101000a81548173ffffffffffffffffffffffffffffffffffffffff021916908373ffffffffffffffffffffffffffffffffffffffff16021790555050505050565b6000806000905060005b60008054905081101561049e57836040516020016104159190610b00565b604051602081830303815290604052805190602001206000828154811061043f5761043e610b17565b5b90600052602060002090600402016001016040516020016104609190610bda565b60405160208183030381529060405280519060200120141561048b57818061048790610c20565b9250505b808061049690610c20565b9150506103f7565b5080915050919050565b8280546104b4906109ef565b90600052602060002090601f0160209004810192826104d6576000855561051d565b82601f106104ef57805160ff191683800117855561051d565b8280016001018555821561051d579182015b8281111561051c578251825591602001919060010190610501565b5b50905061052a919061052e565b5090565b5b8082111561054757600081600090555060010161052f565b5090565b600081519050919050565b600082825260208201905092915050565b6000819050602082019050919050565b600081519050919050565b600082825260208201905092915050565b60005b838110156105b1578082015181840152602081019050610596565b838111156105c0576000848401525b50505050565b6000601f19601f8301169050919050565b60006105e282610577565b6105ec8185610582565b93506105fc818560208601610593565b610605816105c6565b840191505092915050565b6000819050919050565b61062381610610565b82525050565b600073ffffffffffffffffffffffffffffffffffffffff82169050919050565b600061065482610629565b9050919050565b61066481610649565b82525050565b6000608083016000830151848203600086015261068782826105d7565b915050602083015184820360208601526106a182826105d7565b91505060408301516106b6604086018261061a565b5060608301516106c9606086018261065b565b508091505092915050565b60006106e0838361066a565b905092915050565b6000602082019050919050565b60006107008261054b565b61070a8185610556565b93508360208202850161071c85610567565b8060005b85811015610758578484038952815161073985826106d4565b9450610744836106e8565b925060208a01995050600181019050610720565b50829750879550505050505092915050565b6000602082019050818103600083015261078481846106f5565b905092915050565b6000604051905090565b600080fd5b600080fd5b600080fd5b600080fd5b7f4e487b7100000000000000000000000000000000000000000000000000000000600052604160045260246000fd5b6107e2826105c6565b810181811067ffffffffffffffff82111715610801576108006107aa565b5b80604052505050565b600061081461078c565b905061082082826107d9565b919050565b600067ffffffffffffffff8211156108405761083f6107aa565b5b610849826105c6565b9050602081019050919050565b82818337600083830152505050565b600061087861087384610825565b61080a565b905082815260208101848484011115610894576108936107a5565b5b61089f848285610856565b509392505050565b600082601f8301126108bc576108bb6107a0565b5b81356108cc848260208601610865565b91505092915050565b600080604083850312156108ec576108eb610796565b5b600083013567ffffffffffffffff81111561090a5761090961079b565b5b610916858286016108a7565b925050602083013567ffffffffffffffff8111156109375761093661079b565b5b610943858286016108a7565b9150509250929050565b60006020828403121561096357610962610796565b5b600082013567ffffffffffffffff8111156109815761098061079b565b5b61098d848285016108a7565b91505092915050565b61099f81610610565b82525050565b60006020820190506109ba6000830184610996565b92915050565b7f4e487b7100000000000000000000000000000000000000000000000000000000600052602260045260246000fd5b60006002820490506001821680610a0757607f821691505b60208210811415610a1b57610a1a6109c0565b5b50919050565b600082825260208201905092915050565b7f596f7520646f206e6f74206861766520656e6f7567682062616c616e6365207460008201527f6f20766f74650000000000000000000000000000000000000000000000000000602082015250565b6000610a8e602683610a21565b9150610a9982610a32565b604082019050919050565b60006020820190508181036000830152610abd81610a81565b9050919050565b600081905092915050565b6000610ada82610577565b610ae48185610ac4565b9350610af4818560208601610593565b80840191505092915050565b6000610b0c8284610acf565b915081905092915050565b7f4e487b7100000000000000000000000000000000000000000000000000000000600052603260045260246000fd5b60008190508160005260206000209050919050565b60008154610b68816109ef565b610b728186610ac4565b94506001821660008114610b8d5760018114610b9e57610bd1565b60ff19831686528186019350610bd1565b610ba785610b46565b60005b83811015610bc957815481890152600182019150602081019050610baa565b838801955050505b50505092915050565b6000610be68284610b5b565b915081905092915050565b7f4e487b7100000000000000000000000000000000000000000000000000000000600052601160045260246000fd5b6000610c2b82610610565b91507fffffffffffffffffffffffffffffffffffffffffffffffffffffffffffffffff821415610c5e57610c5d610bf1565b5b60018201905091905056fea2646970667358221220591ef2bb0c0ca79a295ca2b7e7044f6cb466b84c2d772efe5937e0ee18a9859a64736f6c63430008090033",
  "linkReferences": {},
  "deployedLinkReferences": {}
}